:020000040800F2
:1000000040080020CD01000835090008F708000865
:1000100031090008AD040008CF11000800000000FD
:10002000000000000000000000000000450B000878
:10003000B104000800000000BD090008590C0008C8
:10004000E7010008E7010008E7010008E7010008F0
:10005000E7010008E7010008E7010008E7010008E0
:10006000E7010008E7010008E7010008E7010008D0
:10007000E7010008E7010008E7010008E7010008C0
:10008000E7010008E7010008E7010008E7010008B0
:10009000E7010008E7010008E7010008E7010008A0
:1000A000E7010008E7010008E7010008E701000890
:1000B000E7010008110D0008E7010008E70100084A
:1000C000E7010008E7010008E7010008E701000870
:1000D000E7010008C90E0008090F0008E701000841
:1000E000E7010008E7010008E7010008E701000850
:1000F000E7010008E7010008E7010008E701000840
:10010000E7010008E7010008E7010008E70100082F
:10011000E7010008E7010008E7010008E70100081F
:10012000E7010008E7010008E7010008E70100080F
:1001300000F002F800F03AF80AA090E8000C8244BF
:100140008344AAF10107DA4501D100F02FF8AFF29C
:10015000090EBAE80F0013F0010F18BFFB1A43F0A5
:10016000010318477012000090120000103A24BFDB
:1001700078C878C1FAD8520724BF30C830C144BF0C
:1001800004680C607047000000230024002500264E
:10019000103A28BF78C1FBD8520728BF30C148BFEA
:1001A0000B6070471FB51FBD10B510BD00F08CF877
:1001B0001146FFF7F7FF01F055F800F0AAF803B475
:1001C000FFF7F2FF03BC00F0B1F8000009488047D8
:1001D00009480047FEE7FEE7FEE7FEE7FEE7FEE729
:1001E000FEE7FEE7FEE7FEE704480549054A064B41
:1001F000704700005D0C000831010008400200203B
:1002000040080020400400204004002030B505468E
:100210000B462A4613F8014B12F8010B08B1A04215
:10022000F8D01CB1002802D06D1CF1E7284630BD83
:100230004FF000020429C0F0128010F0030C00F00F
:100240001E80CCF1040CBCF1020F18BF00F8012B8A
:10025000A8BF20F8022BA1EB0C0100F010B85FEA58
:10026000C17C24BF00F8012B00F8012B48BF00F827
:10027000012B70477047704770474FF0000200B580
:10028000134694469646203922BFA0E80C50A0E8B9
:100290000C50B1F12001BFF4F7AF090728BFA0E867
:1002A0000C5048BF0CC05DF804EB890028BF40F833
:1002B000042B08BF704748BF20F8022B11F0804F75
:1002C00018BF00F8012B7047754600F02BF8AE46BA
:1002D00005006946534620F00700854618B020B552
:1002E000FFF782FFBDE820404FF000064FF0000707
:1002F0004FF000084FF0000B21F00701AC46ACE8CE
:10030000C009ACE8C009ACE8C009ACE8C0098D463A
:10031000704710B50446AFF300802046BDE810409A
:10032000FFF74DBF00487047DC010020014918204D
:10033000ABBEFEE726000200704710B500F0CCFB14
:10034000002000F023F80446E52C1DD10C212C20C0
:1003500000F06EF82B21312000F06AF800212E20E9
:1003600000F066F828212D2000F062F800211E2000
:1003700000F05EF800211F2000F05AF80021202034
:1003800000F056F8012010BD0020FCE770B50446CF
:1003900000264FF48071244800F021F944F08004D5
:1003A0001021224800F019F900251BE04FF480715C
:1003B0001D4800F012F904F0800028B14FF40071DC
:1003C000194800F00CF904E04FF40071164800F0F1
:1003D00004F94FF48071144800F001F96006040E2E
:1003E000681CC5B2082DE1DB002514E07006060E7E
:1003F0004FF480710C4800F0F0F84FF480710A4817
:1004000000F0EDF80221084800F0DEF808B146F0EF
:100410000106681CC5B2082DE8DB1021034800F076
:10042000DEF8304670BD0000000C014000100140B5
:100430002DE9F04104460E464FF48071194800F052
:10044000CEF8254646EA052085B21021164800F070
:10045000C4F800271DE04FF48071124800F0BDF889
:1004600005F4004028B14FF400710E4800F0B7F8D1
:1004700004E04FF400710B4800F0AFF84FF48071C6
:10048000084800F0ACF84FF6FF7000EA4505781C0C
:10049000C7B2102FDFDB1021034800F0A0F8BDE841
:1004A000F0810000000C01400010014000BFFEE799
:1004B00070472DE9F0410246002500260020002368
:1004C0000024002791F803C00CF00F0591F803C039
:1004D0000CF0100CBCF1000F03D091F802C04CEAF4
:1004E000050591F800C0BCF1000F31D01468002060
:1004F0002BE04FF0010C0CFA00F3B1F800C00CEA4D
:1005000003069E4220D183004FF00F0C0CFA03F734
:10051000BC4305FA03FC4CEA040491F803C0BCF1A7
:10052000280F06D14FF0010C0CFA00FCC2F814C0E1
:100530000AE091F803C0BCF1480F05D14FF0010C5F
:100540000CFA00FCC2F810C0401C0828D1D314607B
:10055000B1F800C0BCF1FF0F34DD546800202EE07C
:1005600000F1080C4FF0010808FA0CF3B1F800C0D4
:100570000CEA03069E4221D183004FF00F0C0CFAC7
:1005800003F7BC4305FA03FC4CEA040491F803C0EA
:10059000BCF1280F05D100F1080C08FA0CF8C2F8DC
:1005A000148091F803C0BCF1480F07D100F1080C8A
:1005B0004FF0010808FA0CF8C2F81080401C082817
:1005C000CED35460BDE8F0810246002093680B4012
:1005D0000BB1012000E000207047416170470161CC
:1005E0007047000000B587B00121042000F0F8F941
:1005F0000121480400F0E4F918208DF81B000420C4
:10060000ADF8180003208DF81A0006A91F48FFF75F
:1006100050FF0820ADF8180004208DF81B0006A933
:100620001A48FFF746FF4FF4165002900020ADF82D
:1006300014000C20ADF812000020ADF81000ADF849
:100640000E00ADF80C0002A9114800F04BFD262069
:100650008DF8040001208DF8070004208DF80500B6
:1006600000208DF8060001A800F066F90121094874
:1006700000F0DDFC012240F22551064800F00DFD9E
:10068000054800F0DDF807B000BD0000000801409B
:1006900000380140004400407000002070B5002583
:1006A00000243A493A48FFF7B1FD00286BD0394998
:1006B0003748FFF7ABFD00B970BD10213648FFF792
:1006C000B7FD102134481038FFF7B2FD0020334940
:1006D000087044E02E4831490978405C00B942E096
:1006E0002B482E490978405C2C2803D1681CC5B2E0
:1006F00000242FE0032D19D0042D20D0052D02D089
:10070000062D25D109E0224824490978405C224978
:1007100010390855601CC4B21AE01D481F490978F9
:10072000405C1D49103981F8200011E018481B4930
:100730000978415C18480155601CC4B208E01448AF
:1007400016490978405C1449103981F8210000BF2E
:1007500000BF00BF11480078401C104908700F48C6
:1007600000788028B6DB00BF0B48103800F079F81D
:1007700028B101200A49087000200A4908600020B9
:100780000649087000E097E700BF95E7C813000826
:1007900092000020CF130008800000204C000020B1
:1007A0004D00002050000020002000BF06E023493B
:1007B000095C2E2900D103E0411CC8B21028F6DBE9
:1007C00000BF00221D4B011D5A54194691F82020EC
:1007D000C11C5A54411E1A46515C1154811E525C70
:1007E000411E5A542E22811E5A54002007E01349FC
:1007F0001031095C2E2900D103E0411CC8B2102839
:10080000F5DB00BF00230D491031021D8B54103958
:1008100091F821301031C21C8B54411E074A10320E
:10082000525C064910310A54811E044A1032535C4E
:10083000411E53542E23811E5354704770000020D4
:1008400010B50446102104F11000FFF7F1FC10214F
:100850002046FFF7EDFC002084F8210084F82000FA
:1008600010BD014691F82100532803D091F82100D2
:100870004E2809D191F82000452803D091F8200096
:10088000572801D1012070470020FCE72DE9FF41E6
:1008900005460E461746002408E004F13201C8B2AE
:1008A000FFF774FD02A90855601CC4B2062CF4DBE6
:1008B000002413E002A810F81400012101EB440108
:1008C00002AA515C00EB012000B22DF814003DF9A2
:1008D0001400C0102DF81400601CC4B2032CE9DB16
:1008E000BDF800002880BDF802003080BDF804008B
:1008F0003880BDE8FF8100BFFEE7000008B5012198
:10090000082000F06DF80320ADF8000010208DF8ED
:10091000030003208DF8020069460448FFF7C9FD73
:1009200003210248FFF75BFE08BD0000000C0140F8
:1009300000BFFEE77047000070B5002100230F22C2
:10094000C47804B3154C246804F4E064C4F5E0648E
:10095000210AC1F10403CA40447804FA03F18478FF
:100960001440214309010E4C0678A155047804F087
:100970001F050124AC4005786D11AD0005F1E0259F
:10098000C5F8004109E0047804F01F050124AC40DB
:10099000044D0678761145F8264070BD0CED00E058
:1009A00000E400E080E100E002490143024A1160F6
:1009B000704700000000FA050CED00E070470000F1
:1009C00029B1064AD2690243044BDA6104E0034AC2
:1009D000D2698243014BDA61704700000010024087
:1009E00029B1064A92690243044B9A6104E0034A22
:1009F00092698243014B9A617047000000100240E7
:100A000030B500210022002400232D4D6D6805F033
:100A10000C0121B1042905D0082923D105E0294D75
:100A2000056022E0284D05601FE0254D6D6805F446
:100A30007012234D6D6805F48034022505EB924257
:100A40001CB9224D554305600BE01D4D6D6805F442
:100A500000351DB11B4D5543056002E01A4D55434D
:100A6000056002E0174D056000BF00BF144D6D68C2
:100A700005F0F0010909164D6B5C0568DD40456025
:100A80000F4D6D6805F4E061090A114D6B5C456816
:100A9000DD4085600A4D6D6805F46051C90A0C4D52
:100AA0006B5C4568DD40C560054D6D6805F44041EF
:100AB000890B084D6B5CC568B5FBF3F5056130BD6E
:100AC0000010024000127A000024F40000093D00EA
:100AD0005A0000206A00002008B501210820FFF715
:100AE0007FFF4FF44070ADF8000010208DF8030038
:100AF00003208DF8020069461048FFF7DAFC022057
:100B0000ADF8000048208DF8030069460B48FFF758
:100B1000D0FC01211020FFF763FF1020ADF800008A
:100B20008DF8030003208DF8020069460448FFF7A2
:100B3000C0FC10210248FFF752FD08BD000C014027
:100B400000100140704710B500F002F810BD000021
:100B50000CB50020019000903348006840F48030CC
:100B60003149086000BF3048006800F40030009050
:100B70000198401C0190009818B90198B0F5A06F39
:100B8000F1D12948006800F4003010B10120009034
:100B900001E0002000900098012843D1234800681C
:100BA00040F01000214908600846006820F003006A
:100BB00008600846006840F0020008601A48406873
:100BC000194948600846406848600846406840F453
:100BD000806048600846406820F47C104860084601
:100BE000406840F4F81048600846006840F08070A3
:100BF000086000BF0C48006800F000700028F9D0C1
:100C00000948406820F003000749486008464068EA
:100C100040F00200486000BF0348406800F00C004C
:100C20000828F9D10CBD000000100240002002404D
:100C3000042808D14FF0E021096941F004014FF088
:100C4000E022116107E04FF0E021096921F0040181
:100C50004FF0E022116170477047000010B5134853
:100C6000006840F0010011490860084640681049DA
:100C700008400E494860084600680E4908400B4984
:100C800008600846006820F4802008600846406834
:100C900020F4FE0048604FF41F008860FFF753FF08
:100CA0004FF000600449086010BD000000100240D1
:100CB0000000FFF8FFFFF6FE08ED00E07FB50546F7
:100CC0000C4601210846FFF77BFEADF80850ADF851
:100CD00004400020ADF80A00ADF8060001A94FF06D
:100CE000804000F09FF801221146900700F090F834
:100CF0001C208DF8000000208DF8010003208DF8E5
:100D0000020001208DF803006846FFF715FE7FBD45
:100D100010B501210F4800F06AF8D0B101210D484B
:100D200000F056F80C48007898B90C48007880B963
:100D30000B4A0C490C48FFF7A9FD01200649087031
:100D400000200A4908600A4908700021094A116018
:100D5000516010BD00040040210000202000002050
:100D600004000020020000200000002084812142B5
:100D700022000020300000207FB505460C460121EE
:100D80000220FFF71DFEADF80850ADF8044000202A
:100D9000ADF80A00ADF8060001A90C4800F042F8D1
:100DA00001221146094800F033F81D208DF800009B
:100DB00000208DF8010003208DF8020001208DF83D
:100DC00003006846FFF7B8FD7FBD00000004004047
:100DD000CA430282704721B1028842F001020280B8
:100DE00004E002884FF6FE731A400280704730B567
:100DF0000246002000230024158A05EA0103958994
:100E000005EA010413B10CB1012000E0002030BD5F
:100E10001AB183890B43838102E083898B438381E9
:100E200070470000002202881D4B98420ED01D4BD7
:100E300098420BD0B0F1804F08D01B4B984205D0A0
:100E40001A4B984202D01A4B984204D14FF68F7336
:100E50001A404B881A43174B984207D0164B9842BA
:100E600004D04FF6FF431A40CB881A4302808B8888
:100E700083850B8803850A4B98420BD0094B984217
:100E800008D00E4B984205D00D4B984202D00D4B26
:100E9000984201D10B7A03860123838270470000B8
:100EA000002C0140003401400004004000080040D4
:100EB000000C0040001000400014004000400140C1
:100EC000004401400048014010B540F225510B4854
:100ED00000F0B9F888B1094800F070F908490870C5
:100EE00008460078E52803D101210648FFF773FF83
:100EF00040F22551014800F08BF810BD0038014048
:100F0000120100200004004010B540F2255138487D
:100F100000F099F8012869D1002440F225513448A5
:100F200000F076F800203349086033480068401C20
:100F3000314908602E4800F041F9304908700846F0
:100F40000078242802D100202D4908702B48007811
:100F50002C492B4A1278885429480078401C28498B
:100F6000087008460078802801DB002008702548BA
:100F700023490978405C0A2837D10021214A2048BA
:100F80000078401C1154FFF789FBFFF70DFC00248B
:100F900006E01D48005D2E2800D103E0601CC4B2AD
:100FA000102CF6DB00BFA01E174A1032115C174848
:100FB00000F009F9601E144A1032115C134800F069
:100FC00002F911481030015D104800F0FCF80E489D
:100FD0001030621C815C0D4800F0F5F80A481030B2
:100FE000A21C815C094800F0EEF800BF10BD0000B3
:100FF0000044004080812142500000205400002025
:101000004C000020920000207000002000380140B9
:1010100010B50022002340F66A14A14200D100BF9F
:101020000A1201249440A3B2DC43048010BD21B114
:10103000828942F40052828104E082894DF6FF7376
:101040001A408281704770B50246002400230025B3
:10105000002040F66A16B14200D100BFC1F342152C
:1010600001F01F03012606FA03F3012D02D1968930
:10107000334006E0022D02D1168A334001E0968A01
:1010800033400C12012606FA04F41688344013B1DA
:101090000CB1012000E0002070BDF0B50346002433
:1010A00000260025002040F66A17B94200D100BF93
:1010B0001846C1F3421401F01F06012707FA06F58E
:1010C000012C01D10C3004E0022C01D1103000E0E1
:1010D00014301AB107682F43076002E00768AF4376
:1010E0000760F0BD2DE9F04786B005460E460024A6
:1010F000A24600BFA1460027B08900B100BF2F461D
:101100002C8A4CF6FF700440F08804432C82AC8992
:101110004EF6F3100440B0883189084371890843C2
:101120000443AC81AC8A4FF6FF400440B0890443CD
:10113000AC8201A8FFF764FC1F48874202D1DDF8AA
:1011400010A001E0DDF80CA0A88900F4004040B137
:101150000AEBCA0000EB0A1031684900B0FBF1F855
:1011600007E00AEBCA0000EB0A1031688900B0FB07
:10117000F1F86420B8FBF0F004012009642101FBC0
:101180001089A88900F4004040B1322000EBC9006A
:10119000B0FBF1F000F00700044308E0322000EB60
:1011A00009106421B0FBF1F000F00F0004432C8122
:1011B00006B0BDE8F087000000380140014688888D
:1011C000C0F308007047C1F308028280704700BF77
:1011D000FEE7000010B56FF00400FFF729FD0A4894
:1011E00000680A49B0FBF1F0094908700846007828
:1011F00000EB4001C1EBC0104FF6FF7101EAC000E7
:101200000449088010BD00003800002000127A0058
:1012100056000020580000200146114A12884A4317
:101220004FF0E0235A6100229A611A46126942F097
:1012300001021A6100BF4FF0E022106900F00102C4
:101240001AB100F48032002AF5D04FF0E022126982
:1012500022F001024FF0E0231A6100229A617047E8
:1012600058000020FFF7BEF9FFF748FBFFF7B2FF79
:101270004FF4A060FFF798FBFFF75FF84FF4E13001
:1012800000F046F840F2CF217C20FFF775FD40F2D8
:10129000CF211E20FFF712FD0020114908801149BF
:1012A00008700120104908601049C1F88001002031
:1012B0000F4908700F49087000210F480F4AC2E912
:1012C00000100F480F4908600F4908600F49086077
:1012D00000200749087002E00A20FFF79DFFFBE7A6
:1012E000240000202300002084812142008021422C
:1012F00020000020210000200000F83F30000020E6
:101300000000F04114000020180000201C00002004
:1013100010B586B0044601210420FFF761FB0121CE
:101320008803FFF75DFB4FF40070ADF81400032055
:101330008DF8160018208DF8170005A92048FFF732
:10134000B8F84FF48060ADF8140004208DF8170051
:1013500005A91B48FFF7ADF825208DF800000320F4
:101360008DF801008DF8020001208DF80300684619
:10137000FFF7E2FA01940020ADF80800ADF80A008A
:10138000ADF80C00ADF810000C20ADF80E0001A96E
:101390000C48FFF7A7FE01210420FFF721FB0121E4
:1013A0008803FFF70DFB012240F225510548FFF7A6
:1013B00074FE01210348FFF73AFE06B010BD00009D
:1013C0000008014000380140244750524D43002C92
:1013D000412C0000F4130008000000207000000001
:1013E0006C0100086414000870000020D0070000A1
:1013F000880100080000000000000000000000005C
:1014000000000000000000000000000000000000DC
:1014100000000000000000000000000000000000CC
:1014200000000000000000000000000000A24A04CC
:101430000000000000000000010203040607080984
:10144000000000000000000000000000000000009C
:101450000000010203040102030406070809020454
:04146000060800007A
:04000005080001CD21
:00000001FF
